{
  "contractName": "CredentialVerificationV2",
  "abi": [
    {
      "inputs": [],
      "stateMutability": "nonpayable",
      "type": "constructor"
    },
    {
      "anonymous": false,
      "inputs": [
        {
          "indexed": false,
          "internalType": "uint256",
          "name": "credentialId",
          "type": "uint256"
        },
        {
          "indexed": false,
          "internalType": "address",
          "name": "user",
          "type": "address"
        }
      ],
      "name": "CredentialAccessGranted",
      "type": "event"
    },
    {
      "anonymous": false,
      "inputs": [
        {
          "indexed": false,
          "internalType": "uint256",
          "name": "credentialId",
          "type": "uint256"
        },
        {
          "indexed": false,
          "internalType": "address",
          "name": "user",
          "type": "address"
        }
      ],
      "name": "CredentialAccessRevoked",
      "type": "event"
    },
    {
      "anonymous": false,
      "inputs": [
        {
          "indexed": false,
          "internalType": "uint256",
          "name": "credentialId",
          "type": "uint256"
        }
      ],
      "name": "CredentialRegistered",
      "type": "event"
    },
    {
      "anonymous": false,
      "inputs": [
        {
          "indexed": false,
          "internalType": "uint256",
          "name": "credentialId",
          "type": "uint256"
        }
      ],
      "name": "CredentialUpdated",
      "type": "event"
    },
    {
      "inputs": [],
      "name": "admin",
      "outputs": [
        {
          "internalType": "address",
          "name": "",
          "type": "address"
        }
      ],
      "stateMutability": "view",
      "type": "function"
    },
    {
      "inputs": [
        {
          "internalType": "address",
          "name": "",
          "type": "address"
        },
        {
          "internalType": "uint256",
          "name": "",
          "type": "uint256"
        }
      ],
      "name": "credentialAccess",
      "outputs": [
        {
          "internalType": "bool",
          "name": "",
          "type": "bool"
        }
      ],
      "stateMutability": "view",
      "type": "function"
    },
    {
      "inputs": [],
      "name": "credentialCounter",
      "outputs": [
        {
          "internalType": "uint256",
          "name": "",
          "type": "uint256"
        }
      ],
      "stateMutability": "view",
      "type": "function"
    },
    {
      "inputs": [
        {
          "internalType": "uint256",
          "name": "",
          "type": "uint256"
        }
      ],
      "name": "credentials",
      "outputs": [
        {
          "internalType": "uint256",
          "name": "id",
          "type": "uint256"
        },
        {
          "internalType": "string",
          "name": "credentialType",
          "type": "string"
        },
        {
          "internalType": "string",
          "name": "degreeName",
          "type": "string"
        },
        {
          "internalType": "string",
          "name": "university",
          "type": "string"
        },
        {
          "internalType": "string",
          "name": "graduationDate",
          "type": "string"
        },
        {
          "internalType": "string",
          "name": "licenseNumber",
          "type": "string"
        },
        {
          "internalType": "bool",
          "name": "isValid",
          "type": "bool"
        },
        {
          "internalType": "address",
          "name": "issuer",
          "type": "address"
        }
      ],
      "stateMutability": "view",
      "type": "function"
    },
    {
      "inputs": [
        {
          "internalType": "address",
          "name": "",
          "type": "address"
        }
      ],
      "name": "registeredAddresses",
      "outputs": [
        {
          "internalType": "bool",
          "name": "",
          "type": "bool"
        }
      ],
      "stateMutability": "view",
      "type": "function"
    },
    {
      "inputs": [
        {
          "internalType": "address",
          "name": "user",
          "type": "address"
        }
      ],
      "name": "registerAddress",
      "outputs": [],
      "stateMutability": "nonpayable",
      "type": "function"
    },
    {
      "inputs": [
        {
          "internalType": "address",
          "name": "user",
          "type": "address"
        }
      ],
      "name": "unregisterAddress",
      "outputs": [],
      "stateMutability": "nonpayable",
      "type": "function"
    },
    {
      "inputs": [
        {
          "internalType": "string",
          "name": "credentialType",
          "type": "string"
        },
        {
          "internalType": "string",
          "name": "degreeName",
          "type": "string"
        },
        {
          "internalType": "string",
          "name": "university",
          "type": "string"
        },
        {
          "internalType": "string",
          "name": "graduationDate",
          "type": "string"
        },
        {
          "internalType": "string",
          "name": "licenseNumber",
          "type": "string"
        }
      ],
      "name": "registerCredential",
      "outputs": [
        {
          "internalType": "uint256",
          "name": "",
          "type": "uint256"
        }
      ],
      "stateMutability": "nonpayable",
      "type": "function"
    },
    {
      "inputs": [
        {
          "internalType": "uint256",
          "name": "credentialId",
          "type": "uint256"
        },
        {
          "internalType": "bool",
          "name": "isValid",
          "type": "bool"
        }
      ],
      "name": "updateCredentialValidity",
      "outputs": [],
      "stateMutability": "nonpayable",
      "type": "function"
    },
    {
      "inputs": [
        {
          "internalType": "uint256",
          "name": "credentialId",
          "type": "uint256"
        },
        {
          "internalType": "address",
          "name": "user",
          "type": "address"
        }
      ],
      "name": "grantCredentialAccess",
      "outputs": [],
      "stateMutability": "nonpayable",
      "type": "function"
    },
    {
      "inputs": [
        {
          "internalType": "uint256",
          "name": "credentialId",
          "type": "uint256"
        },
        {
          "internalType": "address",
          "name": "user",
          "type": "address"
        }
      ],
      "name": "revokeCredentialAccess",
      "outputs": [],
      "stateMutability": "nonpayable",
      "type": "function"
    },
    {
      "inputs": [
        {
          "internalType": "string",
          "name": "licenseNumber",
          "type": "string"
        }
      ],
      "name": "verifyLicense",
      "outputs": [
        {
          "internalType": "bool",
          "name": "",
          "type": "bool"
        }
      ],
      "stateMutability": "view",
      "type": "function"
    }
  ],
  "bytecode": "0x608060405234801561001057600080fd5b5033600460006101000a81548173ffffffffffffffffffffffffffffffffffffffff021916908373ffffffffffffffffffffffffffffffffffffffff160217905550611ad1806100616000396000f3fe608060405234801561001057600080fd5b50600436106100b35760003560e01c8063aae0642511610071578063aae064251461019c578063ac6cfb85146101ba578063c288e9b9146101ea578063e0574e3f14610206578063ea7233431461023d578063f851a44014610259576100b3565b8062f7c5be146100b857806325d1d655146100d4578063388afdf2146100f057806339bd38871461012057806376b22eac14610150578063a8a5400814610180575b600080fd5b6100d260048036038101906100cd9190610f17565b610277565b005b6100ee60048036038101906100e99190610f7a565b610362565b005b61010a60048036038101906101059190611100565b6104ad565b6040516101179190611216565b60405180910390f35b61013a60048036038101906101359190611231565b6106eb565b6040516101479190611295565b60405180910390f35b61016a60048036038101906101659190610f17565b6107ed565b6040516101779190611295565b60405180910390f35b61019a60048036038101906101959190610f17565b61080d565b005b6101a46108f7565b6040516101b19190611216565b60405180910390f35b6101d460048036038101906101cf91906112b0565b6108fd565b6040516101e19190611295565b60405180910390f35b61020460048036038101906101ff9190610f7a565b61092c565b005b610220600480360381019061021b91906112f0565b610a6e565b6040516102349897969594939291906113ab565b60405180910390f35b61025760048036038101906102529190611478565b610d8b565b005b610261610e7f565b60405161026e91906114b8565b60405180910390f35b600460009054906101000a900473ffffffffffffffffffffffffffffffffffffffff1673ffffffffffffffffffffffffffffffffffffffff163373ffffffffffffffffffffffffffffffffffffffff1614610307576040517f08c379a00000000000000000000000000000000000000000000000000000000081526004016102fe90611545565b60405180910390fd5b6000600160008373ffffffffffffffffffffffffffffffffffffffff1673ffffffffffffffffffffffffffffffffffffffff16815260200190815260200160002060006101000a81548160ff02191690831515021790555050565b813373ffffffffffffffffffffffffffffffffffffffff1660008083815260200190815260200160002060060160019054906101000a900473ffffffffffffffffffffffffffffffffffffffff1673ffffffffffffffffffffffffffffffffffffffff1614610406576040517f08c379a00000000000000000000000000000000000000000000000000000000081526004016103fd906115d7565b60405180910390fd5b6001600260008473ffffffffffffffffffffffffffffffffffffffff1673ffffffffffffffffffffffffffffffffffffffff168152602001908152602001600020600085815260200190815260200160002060006101000a81548160ff0219169083151502179055507f22187fbb30bca5887820577428c08b2e0016854c629592d3c1e355945480e35183836040516104a09291906115f7565b60405180910390a1505050565b6000600160003373ffffffffffffffffffffffffffffffffffffffff1673ffffffffffffffffffffffffffffffffffffffff16815260200190815260200160002060009054906101000a900460ff1661053b576040517f08c379a00000000000000000000000000000000000000000000000000000000081526004016105329061166c565b60405180910390fd5b6003600081548092919061054e906116bb565b9190505550600060405180610100016040528060035481526020018881526020018781526020018681526020018581526020018481526020016001151581526020013373ffffffffffffffffffffffffffffffffffffffff1681525090508060008060035481526020019081526020016000206000820151816000015560208201518160010190816105e0919061190f565b5060408201518160020190816105f6919061190f565b50606082015181600301908161060c919061190f565b506080820151816004019081610622919061190f565b5060a0820151816005019081610638919061190f565b5060c08201518160060160006101000a81548160ff02191690831515021790555060e08201518160060160016101000a81548173ffffffffffffffffffffffffffffffffffffffff021916908373ffffffffffffffffffffffffffffffffffffffff1602179055509050507f1cfbb42be00f2b4701ad5f70e59f2509b5764256ea7b775d9f3dd5b4efd7183a6003546040516106d49190611216565b60405180910390a160035491505095945050505050565b600080600190505b60035481116107e2576040518060400160405280600781526020017f4c6963656e7365000000000000000000000000000000000000000000000000008152508051906020012060008083815260200190815260200160002060010160405161075b9190611a84565b604051809103902014801561079f575082805190602001206000808381526020019081526020016000206005016040516107959190611a84565b6040518091039020145b156107cf5760008082815260200190815260200160002060060160009054906101000a900460ff169150506107e8565b80806107da906116bb565b9150506106f3565b50600090505b919050565b60016020528060005260406000206000915054906101000a900460ff1681565b600460009054906101000a900473ffffffffffffffffffffffffffffffffffffffff1673ffffffffffffffffffffffffffffffffffffffff163373ffffffffffffffffffffffffffffffffffffffff161461089d576040517f08c379a000000000000000000000000000000000000000000000000000000000815260040161089490611545565b60405180910390fd5b60018060008373ffffffffffffffffffffffffffffffffffffffff1673ffffffffffffffffffffffffffffffffffffffff16815260200190815260200160002060006101000a81548160ff02191690831515021790555050565b60035481565b60026020528160005260406000206020528060005260406000206000915091509054906101000a900460ff1681565b813373ffffffffffffffffffffffffffffffffffffffff1660008083815260200190815260200160002060060160019054906101000a900473ffffffffffffffffffffffffffffffffffffffff1673ffffffffffffffffffffffffffffffffffffffff16146109d0576040517f08c379a00000000000000000000000000000000000000000000000000000000081526004016109c7906115d7565b60405180910390fd5b600260008373ffffffffffffffffffffffffffffffffffffffff1673ffffffffffffffffffffffffffffffffffffffff168152602001908152602001600020600084815260200190815260200160002060006101000a81549060ff02191690557fc3d60fd376160dbf139041d7a7c2b76096af00485d79ab1f8da051c59030759d8383604051610a619291906115f7565b60405180910390a1505050565b6000602052806000526040600020600091509050806000015490806001018054610a9790611732565b80601f0160208091040260200160405190810160405280929190818152602001828054610ac390611732565b8015610b105780601f10610ae557610100808354040283529160200191610b10565b820191906000526020600020905b815481529060010190602001808311610af357829003601f168201915b505050505090806002018054610b2590611732565b80601f0160208091040260200160405190810160405280929190818152602001828054610b5190611732565b8015610b9e5780601f10610b7357610100808354040283529160200191610b9e565b820191906000526020600020905b815481529060010190602001808311610b8157829003601f168201915b505050505090806003018054610bb390611732565b80601f0160208091040260200160405190810160405280929190818152602001828054610bdf90611732565b8015610c2c5780601f10610c0157610100808354040283529160200191610c2c565b820191906000526020600020905b815481529060010190602001808311610c0f57829003601f168201915b505050505090806004018054610c4190611732565b80601f0160208091040260200160405190810160405280929190818152602001828054610c6d90611732565b8015610cba5780601f10610c8f57610100808354040283529160200191610cba565b820191906000526020600020905b815481529060010190602001808311610c9d57829003601f168201915b505050505090806005018054610ccf90611732565b80601f0160208091040260200160405190810160405280929190818152602001828054610cfb90611732565b8015610d485780601f10610d1d57610100808354040283529160200191610d48565b820191906000526020600020905b815481529060010190602001808311610d2b57829003601f168201915b5050505050908060060160009054906101000a900460ff16908060060160019054906101000a900473ffffffffffffffffffffffffffffffffffffffff16905088565b600160003373ffffffffffffffffffffffffffffffffffffffff1673ffffffffffffffffffffffffffffffffffffffff16815260200190815260200160002060009054906101000a900460ff16610e17576040517f08c379a0000000000000000000000000000000000000000000000000000000008152600401610e0e9061166c565b60405180910390fd5b8060008084815260200190815260200160002060060160006101000a81548160ff0219169083151502179055507faf546e6879a109130d587e5ae972d905c080f1395212533857157316489f2c3482604051610e739190611216565b60405180910390a15050565b600460009054906101000a900473ffffffffffffffffffffffffffffffffffffffff1681565b6000604051905090565b600080fd5b600080fd5b600073ffffffffffffffffffffffffffffffffffffffff82169050919050565b6000610ee482610eb9565b9050919050565b610ef481610ed9565b8114610eff57600080fd5b50565b600081359050610f1181610eeb565b92915050565b600060208284031215610f2d57610f2c610eaf565b5b6000610f3b84828501610f02565b91505092915050565b6000819050919050565b610f5781610f44565b8114610f6257600080fd5b50565b600081359050610f7481610f4e565b92915050565b60008060408385031215610f9157610f90610eaf565b5b6000610f9f85828601610f65565b9250506020610fb085828601610f02565b9150509250929050565b600080fd5b600080fd5b6000601f19601f8301169050919050565b7f4e487b7100000000000000000000000000000000000000000000000000000000600052604160045260246000fd5b61100d82610fc4565b810181811067ffffffffffffffff8211171561102c5761102b610fd5565b5b80604052505050565b600061103f610ea5565b905061104b8282611004565b919050565b600067ffffffffffffffff82111561106b5761106a610fd5565b5b61107482610fc4565b9050602081019050919050565b82818337600083830152505050565b60006110a361109e84611050565b611035565b9050828152602081018484840111156110bf576110be610fbf565b5b6110ca848285611081565b509392505050565b600082601f8301126110e7576110e6610fba565b5b81356110f7848260208601611090565b91505092915050565b600080600080600060a0868803121561111c5761111b610eaf565b5b600086013567ffffffffffffffff81111561113a57611139610eb4565b5b611146888289016110d2565b955050602086013567ffffffffffffffff81111561116757611166610eb4565b5b611173888289016110d2565b945050604086013567ffffffffffffffff81111561119457611193610eb4565b5b6111a0888289016110d2565b935050606086013567ffffffffffffffff8111156111c1576111c0610eb4565b5b6111cd888289016110d2565b925050608086013567ffffffffffffffff8111156111ee576111ed610eb4565b5b6111fa888289016110d2565b9150509295509295909350565b61121081610f44565b82525050565b600060208201905061122b6000830184611207565b92915050565b60006020828403121561124757611246610eaf565b5b600082013567ffffffffffffffff81111561126557611264610eb4565b5b611271848285016110d2565b91505092915050565b60008115159050919050565b61128f8161127a565b82525050565b60006020820190506112aa6000830184611286565b92915050565b600080604083850312156112c7576112c6610eaf565b5b60006112d585828601610f02565b92505060206112e685828601610f65565b9150509250929050565b60006020828403121561130657611305610eaf565b5b600061131484828501610f65565b91505092915050565b600081519050919050565b600082825260208201905092915050565b60005b8381101561135757808201518184015260208101905061133c565b60008484015250505050565b600061136e8261131d565b6113788185611328565b9350611388818560208601611339565b61139181610fc4565b840191505092915050565b6113a581610ed9565b82525050565b6000610100820190506113c1600083018b611207565b81810360208301526113d3818a611363565b905081810360408301526113e78189611363565b905081810360608301526113fb8188611363565b9050818103608083015261140f8187611363565b905081810360a08301526114238186611363565b905061143260c0830185611286565b61143f60e083018461139c565b9998505050505050505050565b6114558161127a565b811461146057600080fd5b50565b6000813590506114728161144c565b92915050565b6000806040838503121561148f5761148e610eaf565b5b600061149d85828601610f65565b92505060206114ae85828601611463565b9150509250929050565b60006020820190506114cd600083018461139c565b92915050565b7f4f6e6c792061646d696e2063616e20706572666f726d2074686973206163746960008201527f6f6e000000000000000000000000000000000000000000000000000000000000602082015250565b600061152f602283611328565b915061153a826114d3565b604082019050919050565b6000602082019050818103600083015261155e81611522565b9050919050565b7f4f6e6c79206973737565722063616e20706572666f726d20746869732061637460008201527f696f6e0000000000000000000000000000000000000000000000000000000000602082015250565b60006115c1602383611328565b91506115cc82611565565b604082019050919050565b600060208201905081810360008301526115f0816115b4565b9050919050565b600060408201905061160c6000830185611207565b611619602083018461139c565b9392505050565b7f556e617574686f72697a65642061646472657373000000000000000000000000600082015250565b6000611656601483611328565b915061166182611620565b602082019050919050565b6000602082019050818103600083015261168581611649565b9050919050565b7f4e487b7100000000000000000000000000000000000000000000000000000000600052601160045260246000fd5b60006116c682610f44565b91507fffffffffffffffffffffffffffffffffffffffffffffffffffffffffffffffff82036116f8576116f761168c565b5b600182019050919050565b7f4e487b7100000000000000000000000000000000000000000000000000000000600052602260045260246000fd5b6000600282049050600182168061174a57607f821691505b60208210810361175d5761175c611703565b5b50919050565b60008190508160005260206000209050919050565b60006020601f8301049050919050565b600082821b905092915050565b6000600883026117c57fffffffffffffffffffffffffffffffffffffffffffffffffffffffffffffffff82611788565b6117cf8683611788565b95508019841693508086168417925050509392505050565b6000819050919050565b600061180c61180761180284610f44565b6117e7565b610f44565b9050919050565b6000819050919050565b611826836117f1565b61183a61183282611813565b848454611795565b825550505050565b600090565b61184f611842565b61185a81848461181d565b505050565b5b8181101561187e57611873600082611847565b600181019050611860565b5050565b601f8211156118c35761189481611763565b61189d84611778565b810160208510156118ac578190505b6118c06118b885611778565b83018261185f565b50505b505050565b600082821c905092915050565b60006118e6600019846008026118c8565b1980831691505092915050565b60006118ff83836118d5565b9150826002028217905092915050565b6119188261131d565b67ffffffffffffffff81111561193157611930610fd5565b5b61193b8254611732565b611946828285611882565b600060209050601f8311600181146119795760008415611967578287015190505b61197185826118f3565b8655506119d9565b601f19841661198786611763565b60005b828110156119af5784890151825560018201915060208501945060208101905061198a565b868310156119cc57848901516119c8601f8916826118d5565b8355505b6001600288020188555050505b505050505050565b600081905092915050565b60008190508160005260206000209050919050565b60008154611a0e81611732565b611a1881866119e1565b94506001821660008114611a335760018114611a4857611a7b565b60ff1983168652811515820286019350611a7b565b611a51856119ec565b60005b83811015611a7357815481890152600182019150602081019050611a54565b838801955050505b50505092915050565b6000611a908284611a01565b91508190509291505056fea2646970667358221220d672d15321072be0543ea8d84206c1373a12f5e8035d0c0bf38600b5887cc12964736f6c63430008130033",
  "immutableReferences": {},
  "source": "// SPDX-License-Identifier: MIT\r\npragma solidity ^0.8.0;\r\n\r\ncontract CredentialVerificationV2 {\r\n    struct Credential {\r\n        uint256 id;\r\n        string credentialType;\r\n        string degreeName;\r\n        string university;\r\n        string graduationDate;\r\n        string licenseNumber;\r\n        bool isValid;\r\n        address issuer;\r\n    }\r\n\r\n    mapping(uint256 => Credential) public credentials;\r\n    mapping(address => bool) public registeredAddresses; // Mapping to track registered addresses\r\n    mapping(address => mapping(uint256 => bool)) public credentialAccess;\r\n    uint256 public credentialCounter;\r\n    address public admin;\r\n\r\n    modifier onlyAdmin() {\r\n        require(msg.sender == admin, \"Only admin can perform this action\");\r\n        _;\r\n    }\r\n\r\n    modifier onlyRegistered() {\r\n        require(registeredAddresses[msg.sender], \"Unauthorized address\");\r\n        _;\r\n    }\r\n\r\n    modifier onlyIssuer(uint256 credentialId) {\r\n        require(\r\n            credentials[credentialId].issuer == msg.sender,\r\n            \"Only issuer can perform this action\"\r\n        );\r\n        _;\r\n    }\r\n\r\n    modifier onlyAuthorizedUser(uint256 credentialId) {\r\n        require(\r\n            credentials[credentialId].issuer == msg.sender ||\r\n                credentialAccess[msg.sender][credentialId],\r\n            \"Unauthorized user\"\r\n        );\r\n        _;\r\n    }\r\n\r\n    event CredentialRegistered(uint256 credentialId);\r\n    event CredentialUpdated(uint256 credentialId);\r\n    event CredentialAccessGranted(uint256 credentialId, address user);\r\n    event CredentialAccessRevoked(uint256 credentialId, address user);\r\n\r\n    constructor() {\r\n        admin = msg.sender; // Set the admin address during contract deployment\r\n    }\r\n\r\n    function registerAddress(address user) public onlyAdmin {\r\n        registeredAddresses[user] = true; // Allow the admin to register an address\r\n    }\r\n\r\n    function unregisterAddress(address user) public onlyAdmin {\r\n        registeredAddresses[user] = false; // Allow the admin to unregister an address\r\n    }\r\n\r\n    function registerCredential(\r\n        string memory credentialType,\r\n        string memory degreeName,\r\n        string memory university,\r\n        string memory graduationDate,\r\n        string memory licenseNumber\r\n    ) public onlyRegistered returns (uint256) {\r\n        credentialCounter++;\r\n        Credential memory newCredential = Credential(\r\n            credentialCounter,\r\n            credentialType,\r\n            degreeName,\r\n            university,\r\n            graduationDate,\r\n            licenseNumber,\r\n            true,\r\n            msg.sender\r\n        );\r\n        credentials[credentialCounter] = newCredential;\r\n        emit CredentialRegistered(credentialCounter);\r\n        return credentialCounter;\r\n    }\r\n\r\n    function updateCredentialValidity(uint256 credentialId, bool isValid)\r\n        public\r\n        onlyRegistered\r\n    {\r\n        credentials[credentialId].isValid = isValid;\r\n        emit CredentialUpdated(credentialId);\r\n    }\r\n\r\n    function grantCredentialAccess(uint256 credentialId, address user)\r\n        public\r\n        onlyIssuer(credentialId)\r\n    {\r\n        credentialAccess[user][credentialId] = true;\r\n        emit CredentialAccessGranted(credentialId, user);\r\n    }\r\n\r\n    function revokeCredentialAccess(uint256 credentialId, address user)\r\n        public\r\n        onlyIssuer(credentialId)\r\n    {\r\n        delete credentialAccess[user][credentialId];\r\n        emit CredentialAccessRevoked(credentialId, user);\r\n    }\r\n\r\n    function verifyLicense(string memory licenseNumber)\r\n        public\r\n        view\r\n        returns (bool)\r\n    {\r\n        for (uint256 i = 1; i <= credentialCounter; i++) {\r\n            if (\r\n                keccak256(bytes(credentials[i].credentialType)) ==\r\n                    keccak256(bytes(\"License\")) &&\r\n                keccak256(bytes(credentials[i].licenseNumber)) ==\r\n                    keccak256(bytes(licenseNumber))\r\n            ) {\r\n                return credentials[i].isValid;\r\n            }\r\n        }\r\n        return false;\r\n    }\r\n}\r\n",
  "sourcePath": "F:\\SELF\\BlockChain\\NodeServer\\truffle\\contracts\\CredintialVerificationV2.sol",
  "compiler": {
    "name": "solc",
    "version": "0.8.19+commit.7dd6d404.Emscripten.clang"
  },
  "schemaVersion": "3.4.13",
  "updatedAt": "2023-05-27T09:43:45.333Z",
  "devdoc": {
    "kind": "dev",
    "methods": {},
    "version": 1
  },
  "userdoc": {
    "kind": "user",
    "methods": {},
    "version": 1
  }
}